{
  "_format": "hh-sol-artifact-1",
  "contractName": "Crowdfundingplatform",
  "sourceName": "contracts/Crowdfundingplatform.sol",
  "abi": [
    {
      "inputs": [
        {
          "internalType": "address",
          "name": "_owner",
          "type": "address"
        },
        {
          "internalType": "string",
          "name": "_projectName",
          "type": "string"
        },
        {
          "internalType": "string",
          "name": "_token",
          "type": "string"
        },
        {
          "internalType": "uint256",
          "name": "_targetAmount",
          "type": "uint256"
        },
        {
          "internalType": "uint256",
          "name": "_minimumAmount",
          "type": "uint256"
        },
        {
          "internalType": "uint256",
          "name": "_tokenRate",
          "type": "uint256"
        },
        {
          "internalType": "uint256",
          "name": "_deadline",
          "type": "uint256"
        }
      ],
      "stateMutability": "nonpayable",
      "type": "constructor"
    },
    {
      "anonymous": false,
      "inputs": [
        {
          "indexed": false,
          "internalType": "uint256",
          "name": "amount",
          "type": "uint256"
        },
        {
          "indexed": false,
          "internalType": "uint256",
          "name": "when",
          "type": "uint256"
        }
      ],
      "name": "Withdrawal",
      "type": "event"
    },
    {
      "inputs": [
        {
          "internalType": "address",
          "name": "",
          "type": "address"
        }
      ],
      "name": "amountPerUser",
      "outputs": [
        {
          "internalType": "uint256",
          "name": "",
          "type": "uint256"
        }
      ],
      "stateMutability": "view",
      "type": "function"
    },
    {
      "inputs": [],
      "name": "contribute",
      "outputs": [],
      "stateMutability": "payable",
      "type": "function"
    },
    {
      "inputs": [],
      "name": "deadline",
      "outputs": [
        {
          "internalType": "uint256",
          "name": "",
          "type": "uint256"
        }
      ],
      "stateMutability": "view",
      "type": "function"
    },
    {
      "inputs": [],
      "name": "getAddress",
      "outputs": [
        {
          "internalType": "address",
          "name": "",
          "type": "address"
        }
      ],
      "stateMutability": "view",
      "type": "function"
    },
    {
      "inputs": [],
      "name": "getDeadline",
      "outputs": [
        {
          "internalType": "uint256",
          "name": "",
          "type": "uint256"
        }
      ],
      "stateMutability": "view",
      "type": "function"
    },
    {
      "inputs": [],
      "name": "getMinimumAmount",
      "outputs": [
        {
          "internalType": "uint256",
          "name": "",
          "type": "uint256"
        }
      ],
      "stateMutability": "view",
      "type": "function"
    },
    {
      "inputs": [],
      "name": "getOwner",
      "outputs": [
        {
          "internalType": "address",
          "name": "",
          "type": "address"
        }
      ],
      "stateMutability": "view",
      "type": "function"
    },
    {
      "inputs": [],
      "name": "getProjectName",
      "outputs": [
        {
          "internalType": "string",
          "name": "",
          "type": "string"
        }
      ],
      "stateMutability": "view",
      "type": "function"
    },
    {
      "inputs": [],
      "name": "getTargetAmount",
      "outputs": [
        {
          "internalType": "uint256",
          "name": "",
          "type": "uint256"
        }
      ],
      "stateMutability": "view",
      "type": "function"
    },
    {
      "inputs": [],
      "name": "getTokenAddress",
      "outputs": [
        {
          "internalType": "address",
          "name": "",
          "type": "address"
        }
      ],
      "stateMutability": "view",
      "type": "function"
    },
    {
      "inputs": [],
      "name": "getTokenName",
      "outputs": [
        {
          "internalType": "string",
          "name": "",
          "type": "string"
        }
      ],
      "stateMutability": "view",
      "type": "function"
    },
    {
      "inputs": [],
      "name": "getTokenRate",
      "outputs": [
        {
          "internalType": "uint256",
          "name": "",
          "type": "uint256"
        }
      ],
      "stateMutability": "view",
      "type": "function"
    },
    {
      "inputs": [],
      "name": "minimumAmount",
      "outputs": [
        {
          "internalType": "uint256",
          "name": "",
          "type": "uint256"
        }
      ],
      "stateMutability": "view",
      "type": "function"
    },
    {
      "inputs": [],
      "name": "owner",
      "outputs": [
        {
          "internalType": "address payable",
          "name": "",
          "type": "address"
        }
      ],
      "stateMutability": "view",
      "type": "function"
    },
    {
      "inputs": [],
      "name": "projectName",
      "outputs": [
        {
          "internalType": "string",
          "name": "",
          "type": "string"
        }
      ],
      "stateMutability": "view",
      "type": "function"
    },
    {
      "inputs": [],
      "name": "stakingToken",
      "outputs": [
        {
          "internalType": "contract TokenERC20",
          "name": "",
          "type": "address"
        }
      ],
      "stateMutability": "view",
      "type": "function"
    },
    {
      "inputs": [],
      "name": "targetAmount",
      "outputs": [
        {
          "internalType": "uint256",
          "name": "",
          "type": "uint256"
        }
      ],
      "stateMutability": "view",
      "type": "function"
    },
    {
      "inputs": [],
      "name": "token",
      "outputs": [
        {
          "internalType": "string",
          "name": "",
          "type": "string"
        }
      ],
      "stateMutability": "view",
      "type": "function"
    },
    {
      "inputs": [],
      "name": "tokenRate",
      "outputs": [
        {
          "internalType": "uint256",
          "name": "",
          "type": "uint256"
        }
      ],
      "stateMutability": "view",
      "type": "function"
    },
    {
      "inputs": [],
      "name": "totalAmount",
      "outputs": [
        {
          "internalType": "uint256",
          "name": "",
          "type": "uint256"
        }
      ],
      "stateMutability": "view",
      "type": "function"
    },
    {
      "inputs": [],
      "name": "totalRaised",
      "outputs": [
        {
          "internalType": "uint256",
          "name": "",
          "type": "uint256"
        }
      ],
      "stateMutability": "view",
      "type": "function"
    }
  ],
  "bytecode": "0x60806040523480156200001157600080fd5b50604051620032ef380380620032ef833981810160405281019062000037919062000382565b86600160006101000a81548173ffffffffffffffffffffffffffffffffffffffff021916908373ffffffffffffffffffffffffffffffffffffffff1602179055508560029081620000899190620006b4565b5084600390816200009b9190620006b4565b508360048190555082600581905550816006819055508060078190555060026003604051620000ca9062000141565b620000d79291906200083c565b604051809103906000f080158015620000f4573d6000803e3d6000fd5b506000806101000a81548173ffffffffffffffffffffffffffffffffffffffff021916908373ffffffffffffffffffffffffffffffffffffffff1602179055505050505050505062000877565b611a96806200185983390190565b6000604051905090565b600080fd5b600080fd5b600073ffffffffffffffffffffffffffffffffffffffff82169050919050565b6000620001908262000163565b9050919050565b620001a28162000183565b8114620001ae57600080fd5b50565b600081519050620001c28162000197565b92915050565b600080fd5b600080fd5b6000601f19601f8301169050919050565b7f4e487b7100000000000000000000000000000000000000000000000000000000600052604160045260246000fd5b6200021d82620001d2565b810181811067ffffffffffffffff821117156200023f576200023e620001e3565b5b80604052505050565b6000620002546200014f565b905062000262828262000212565b919050565b600067ffffffffffffffff821115620002855762000284620001e3565b5b6200029082620001d2565b9050602081019050919050565b60005b83811015620002bd578082015181840152602081019050620002a0565b60008484015250505050565b6000620002e0620002da8462000267565b62000248565b905082815260208101848484011115620002ff57620002fe620001cd565b5b6200030c8482856200029d565b509392505050565b600082601f8301126200032c576200032b620001c8565b5b81516200033e848260208601620002c9565b91505092915050565b6000819050919050565b6200035c8162000347565b81146200036857600080fd5b50565b6000815190506200037c8162000351565b92915050565b600080600080600080600060e0888a031215620003a457620003a362000159565b5b6000620003b48a828b01620001b1565b975050602088015167ffffffffffffffff811115620003d857620003d76200015e565b5b620003e68a828b0162000314565b965050604088015167ffffffffffffffff8111156200040a57620004096200015e565b5b620004188a828b0162000314565b95505060606200042b8a828b016200036b565b94505060806200043e8a828b016200036b565b93505060a0620004518a828b016200036b565b92505060c0620004648a828b016200036b565b91505092959891949750929550565b600081519050919050565b7f4e487b7100000000000000000000000000000000000000000000000000000000600052602260045260246000fd5b60006002820490506001821680620004c657607f821691505b602082108103620004dc57620004db6200047e565b5b50919050565b60008190508160005260206000209050919050565b60006020601f8301049050919050565b600082821b905092915050565b600060088302620005467fffffffffffffffffffffffffffffffffffffffffffffffffffffffffffffffff8262000507565b62000552868362000507565b95508019841693508086168417925050509392505050565b6000819050919050565b6000620005956200058f620005898462000347565b6200056a565b62000347565b9050919050565b6000819050919050565b620005b18362000574565b620005c9620005c0826200059c565b84845462000514565b825550505050565b600090565b620005e0620005d1565b620005ed818484620005a6565b505050565b5b81811015620006155762000609600082620005d6565b600181019050620005f3565b5050565b601f82111562000664576200062e81620004e2565b6200063984620004f7565b8101602085101562000649578190505b620006616200065885620004f7565b830182620005f2565b50505b505050565b600082821c905092915050565b6000620006896000198460080262000669565b1980831691505092915050565b6000620006a4838362000676565b9150826002028217905092915050565b620006bf8262000473565b67ffffffffffffffff811115620006db57620006da620001e3565b5b620006e78254620004ad565b620006f482828562000619565b600060209050601f8311600181146200072c576000841562000717578287015190505b62000723858262000696565b86555062000793565b601f1984166200073c86620004e2565b60005b8281101562000766578489015182556001820191506020850194506020810190506200073f565b8683101562000786578489015162000782601f89168262000676565b8355505b6001600288020188555050505b505050505050565b600082825260208201905092915050565b60008154620007bb81620004ad565b620007c781866200079b565b94506001821660008114620007e55760018114620007fc5762000833565b60ff19831686528115156020028601935062000833565b6200080785620004e2565b60005b838110156200082b578154818901526001820191506020810190506200080a565b808801955050505b50505092915050565b60006040820190508181036000830152620008588185620007ac565b905081810360208301526200086e8184620007ac565b90509392505050565b610fd280620008876000396000f3fe60806040526004361061012a5760003560e01c8063893d20e8116100ab5780639faf62151161006f5780639faf6215146103b4578063bb0c8298146103df578063c0f245101461040a578063c5c4744c14610447578063d7bb99ba14610472578063fc0c546a1461047c5761012a565b8063893d20e8146102dd5780638da5cb5b1461030857806391ac4b8814610333578063953b8fb81461035e5780639a33e300146103895761012a565b80633e2d7004116100f25780633e2d7004146102065780635f8d96de1461023157806362066eb31461025c57806372f702f314610287578063862b092b146102b25761012a565b806310fe9ae81461012f5780631a39d8ef1461015a57806329dcb0cf1461018557806331711884146101b057806338cc4831146101db575b600080fd5b34801561013b57600080fd5b506101446104a7565b6040516101519190610a50565b60405180910390f35b34801561016657600080fd5b5061016f6104d0565b60405161017c9190610a84565b60405180910390f35b34801561019157600080fd5b5061019a6104d6565b6040516101a79190610a84565b60405180910390f35b3480156101bc57600080fd5b506101c56104dc565b6040516101d29190610a84565b60405180910390f35b3480156101e757600080fd5b506101f06104e2565b6040516101fd9190610a50565b60405180910390f35b34801561021257600080fd5b5061021b6104ea565b6040516102289190610a84565b60405180910390f35b34801561023d57600080fd5b506102466104f4565b6040516102539190610a84565b60405180910390f35b34801561026857600080fd5b506102716104fe565b60405161027e9190610a84565b60405180910390f35b34801561029357600080fd5b5061029c610508565b6040516102a99190610afe565b60405180910390f35b3480156102be57600080fd5b506102c761052c565b6040516102d49190610ba9565b60405180910390f35b3480156102e957600080fd5b506102f26105be565b6040516102ff9190610a50565b60405180910390f35b34801561031457600080fd5b5061031d6105e8565b60405161032a9190610bec565b60405180910390f35b34801561033f57600080fd5b5061034861060e565b6040516103559190610a84565b60405180910390f35b34801561036a57600080fd5b50610373610618565b6040516103809190610a84565b60405180910390f35b34801561039557600080fd5b5061039e61061e565b6040516103ab9190610ba9565b60405180910390f35b3480156103c057600080fd5b506103c96106ac565b6040516103d69190610ba9565b60405180910390f35b3480156103eb57600080fd5b506103f461073e565b6040516104019190610a84565b60405180910390f35b34801561041657600080fd5b50610431600480360381019061042c9190610c38565b610744565b60405161043e9190610a84565b60405180910390f35b34801561045357600080fd5b5061045c61075c565b6040516104699190610a84565b60405180910390f35b61047a610762565b005b34801561048857600080fd5b50610491610981565b60405161049e9190610ba9565b60405180910390f35b60008060009054906101000a900473ffffffffffffffffffffffffffffffffffffffff16905090565b60095481565b60075481565b60065481565b600030905090565b6000600654905090565b6000600754905090565b6000600554905090565b60008054906101000a900473ffffffffffffffffffffffffffffffffffffffff1681565b60606003805461053b90610c94565b80601f016020809104026020016040519081016040528092919081815260200182805461056790610c94565b80156105b45780601f10610589576101008083540402835291602001916105b4565b820191906000526020600020905b81548152906001019060200180831161059757829003601f168201915b5050505050905090565b6000600160009054906101000a900473ffffffffffffffffffffffffffffffffffffffff16905090565b600160009054906101000a900473ffffffffffffffffffffffffffffffffffffffff1681565b6000600454905090565b60045481565b6002805461062b90610c94565b80601f016020809104026020016040519081016040528092919081815260200182805461065790610c94565b80156106a45780601f10610679576101008083540402835291602001916106a4565b820191906000526020600020905b81548152906001019060200180831161068757829003601f168201915b505050505081565b6060600280546106bb90610c94565b80601f01602080910402602001604051908101604052809291908181526020018280546106e790610c94565b80156107345780601f1061070957610100808354040283529160200191610734565b820191906000526020600020905b81548152906001019060200180831161071757829003601f168201915b5050505050905090565b60055481565b600a6020528060005260406000206000915090505481565b60085481565b60075442106107a6576040517f08c379a000000000000000000000000000000000000000000000000000000000815260040161079d90610d11565b60405180910390fd5b600454600954106107ec576040517f08c379a00000000000000000000000000000000000000000000000000000000081526004016107e390610d7d565b60405180910390fd5b600554341015610831576040517f08c379a000000000000000000000000000000000000000000000000000000000815260040161082890610de9565b60405180910390fd5b34600a60003373ffffffffffffffffffffffffffffffffffffffff1673ffffffffffffffffffffffffffffffffffffffff16815260200190815260200160002060008282546108809190610e38565b9250508190555034600960008282546108999190610e38565b9250508190555060008054906101000a900473ffffffffffffffffffffffffffffffffffffffff1673ffffffffffffffffffffffffffffffffffffffff1663a9059cbb33600554346006546108ee9190610e6c565b6108f89190610edd565b6040518363ffffffff1660e01b8152600401610915929190610f0e565b6020604051808303816000875af1158015610934573d6000803e3d6000fd5b505050506040513d601f19601f820116820180604052508101906109589190610f6f565b50346006546109679190610e6c565b600860008282546109789190610e38565b92505081905550565b6003805461098e90610c94565b80601f01602080910402602001604051908101604052809291908181526020018280546109ba90610c94565b8015610a075780601f106109dc57610100808354040283529160200191610a07565b820191906000526020600020905b8154815290600101906020018083116109ea57829003601f168201915b505050505081565b600073ffffffffffffffffffffffffffffffffffffffff82169050919050565b6000610a3a82610a0f565b9050919050565b610a4a81610a2f565b82525050565b6000602082019050610a656000830184610a41565b92915050565b6000819050919050565b610a7e81610a6b565b82525050565b6000602082019050610a996000830184610a75565b92915050565b6000819050919050565b6000610ac4610abf610aba84610a0f565b610a9f565b610a0f565b9050919050565b6000610ad682610aa9565b9050919050565b6000610ae882610acb565b9050919050565b610af881610add565b82525050565b6000602082019050610b136000830184610aef565b92915050565b600081519050919050565b600082825260208201905092915050565b60005b83811015610b53578082015181840152602081019050610b38565b60008484015250505050565b6000601f19601f8301169050919050565b6000610b7b82610b19565b610b858185610b24565b9350610b95818560208601610b35565b610b9e81610b5f565b840191505092915050565b60006020820190508181036000830152610bc38184610b70565b905092915050565b6000610bd682610a0f565b9050919050565b610be681610bcb565b82525050565b6000602082019050610c016000830184610bdd565b92915050565b600080fd5b610c1581610a2f565b8114610c2057600080fd5b50565b600081359050610c3281610c0c565b92915050565b600060208284031215610c4e57610c4d610c07565b5b6000610c5c84828501610c23565b91505092915050565b7f4e487b7100000000000000000000000000000000000000000000000000000000600052602260045260246000fd5b60006002820490506001821680610cac57607f821691505b602082108103610cbf57610cbe610c65565b5b50919050565b7f46756e64696e67206973207061737420646561646c696e650000000000000000600082015250565b6000610cfb601883610b24565b9150610d0682610cc5565b602082019050919050565b60006020820190508181036000830152610d2a81610cee565b9050919050565b7f456e6f756768206d6f6e65792069732072616973656400000000000000000000600082015250565b6000610d67601683610b24565b9150610d7282610d31565b602082019050919050565b60006020820190508181036000830152610d9681610d5a565b9050919050565b7f636f6e747269627574696f6e2062656c6f77207468726573686f6c6400000000600082015250565b6000610dd3601c83610b24565b9150610dde82610d9d565b602082019050919050565b60006020820190508181036000830152610e0281610dc6565b9050919050565b7f4e487b7100000000000000000000000000000000000000000000000000000000600052601160045260246000fd5b6000610e4382610a6b565b9150610e4e83610a6b565b9250828201905080821115610e6657610e65610e09565b5b92915050565b6000610e7782610a6b565b9150610e8283610a6b565b9250828202610e9081610a6b565b91508282048414831517610ea757610ea6610e09565b5b5092915050565b7f4e487b7100000000000000000000000000000000000000000000000000000000600052601260045260246000fd5b6000610ee882610a6b565b9150610ef383610a6b565b925082610f0357610f02610eae565b5b828204905092915050565b6000604082019050610f236000830185610a41565b610f306020830184610a75565b9392505050565b60008115159050919050565b610f4c81610f37565b8114610f5757600080fd5b50565b600081519050610f6981610f43565b92915050565b600060208284031215610f8557610f84610c07565b5b6000610f9384828501610f5a565b9150509291505056fea2646970667358221220ae53bb62a9a93cfb69a018d514dda3f25a5898df1198e715bc7e38b9069422c864736f6c6343000812003360806040523480156200001157600080fd5b5060405162001a9638038062001a96833981810160405281019062000037919062000385565b818181600390816200004a919062000655565b5080600490816200005c919062000655565b50505062000073336103e86200007b60201b60201c565b505062000857565b600073ffffffffffffffffffffffffffffffffffffffff168273ffffffffffffffffffffffffffffffffffffffff1603620000ed576040517f08c379a0000000000000000000000000000000000000000000000000000000008152600401620000e4906200079d565b60405180910390fd5b6200010160008383620001e860201b60201c565b8060026000828254620001159190620007ee565b92505081905550806000808473ffffffffffffffffffffffffffffffffffffffff1673ffffffffffffffffffffffffffffffffffffffff168152602001908152602001600020600082825401925050819055508173ffffffffffffffffffffffffffffffffffffffff16600073ffffffffffffffffffffffffffffffffffffffff167fddf252ad1be2c89b69c2b068fc378daa952ba7f163c4a11628f55a4df523b3ef83604051620001c891906200083a565b60405180910390a3620001e460008383620001ed60201b60201c565b5050565b505050565b505050565b6000604051905090565b600080fd5b600080fd5b600080fd5b600080fd5b6000601f19601f8301169050919050565b7f4e487b7100000000000000000000000000000000000000000000000000000000600052604160045260246000fd5b6200025b8262000210565b810181811067ffffffffffffffff821117156200027d576200027c62000221565b5b80604052505050565b600062000292620001f2565b9050620002a0828262000250565b919050565b600067ffffffffffffffff821115620002c357620002c262000221565b5b620002ce8262000210565b9050602081019050919050565b60005b83811015620002fb578082015181840152602081019050620002de565b60008484015250505050565b60006200031e6200031884620002a5565b62000286565b9050828152602081018484840111156200033d576200033c6200020b565b5b6200034a848285620002db565b509392505050565b600082601f8301126200036a576200036962000206565b5b81516200037c84826020860162000307565b91505092915050565b600080604083850312156200039f576200039e620001fc565b5b600083015167ffffffffffffffff811115620003c057620003bf62000201565b5b620003ce8582860162000352565b925050602083015167ffffffffffffffff811115620003f257620003f162000201565b5b620004008582860162000352565b9150509250929050565b600081519050919050565b7f4e487b7100000000000000000000000000000000000000000000000000000000600052602260045260246000fd5b600060028204905060018216806200045d57607f821691505b60208210810362000473576200047262000415565b5b50919050565b60008190508160005260206000209050919050565b60006020601f8301049050919050565b600082821b905092915050565b600060088302620004dd7fffffffffffffffffffffffffffffffffffffffffffffffffffffffffffffffff826200049e565b620004e986836200049e565b95508019841693508086168417925050509392505050565b6000819050919050565b6000819050919050565b600062000536620005306200052a8462000501565b6200050b565b62000501565b9050919050565b6000819050919050565b620005528362000515565b6200056a62000561826200053d565b848454620004ab565b825550505050565b600090565b6200058162000572565b6200058e81848462000547565b505050565b5b81811015620005b657620005aa60008262000577565b60018101905062000594565b5050565b601f8211156200060557620005cf8162000479565b620005da846200048e565b81016020851015620005ea578190505b62000602620005f9856200048e565b83018262000593565b50505b505050565b600082821c905092915050565b60006200062a600019846008026200060a565b1980831691505092915050565b600062000645838362000617565b9150826002028217905092915050565b62000660826200040a565b67ffffffffffffffff8111156200067c576200067b62000221565b5b62000688825462000444565b62000695828285620005ba565b600060209050601f831160018114620006cd5760008415620006b8578287015190505b620006c4858262000637565b86555062000734565b601f198416620006dd8662000479565b60005b828110156200070757848901518255600182019150602085019450602081019050620006e0565b8683101562000727578489015162000723601f89168262000617565b8355505b6001600288020188555050505b505050505050565b600082825260208201905092915050565b7f45524332303a206d696e7420746f20746865207a65726f206164647265737300600082015250565b600062000785601f836200073c565b915062000792826200074d565b602082019050919050565b60006020820190508181036000830152620007b88162000776565b9050919050565b7f4e487b7100000000000000000000000000000000000000000000000000000000600052601160045260246000fd5b6000620007fb8262000501565b9150620008088362000501565b9250828201905080821115620008235762000822620007bf565b5b92915050565b620008348162000501565b82525050565b600060208201905062000851600083018462000829565b92915050565b61122f80620008676000396000f3fe608060405234801561001057600080fd5b50600436106100a95760003560e01c80633950935111610071578063395093511461016857806370a082311461019857806395d89b41146101c8578063a457c2d7146101e6578063a9059cbb14610216578063dd62ed3e14610246576100a9565b806306fdde03146100ae578063095ea7b3146100cc57806318160ddd146100fc57806323b872dd1461011a578063313ce5671461014a575b600080fd5b6100b6610276565b6040516100c39190610b0c565b60405180910390f35b6100e660048036038101906100e19190610bc7565b610308565b6040516100f39190610c22565b60405180910390f35b61010461032b565b6040516101119190610c4c565b60405180910390f35b610134600480360381019061012f9190610c67565b610335565b6040516101419190610c22565b60405180910390f35b610152610364565b60405161015f9190610cd6565b60405180910390f35b610182600480360381019061017d9190610bc7565b61036d565b60405161018f9190610c22565b60405180910390f35b6101b260048036038101906101ad9190610cf1565b6103a4565b6040516101bf9190610c4c565b60405180910390f35b6101d06103ec565b6040516101dd9190610b0c565b60405180910390f35b61020060048036038101906101fb9190610bc7565b61047e565b60405161020d9190610c22565b60405180910390f35b610230600480360381019061022b9190610bc7565b6104f5565b60405161023d9190610c22565b60405180910390f35b610260600480360381019061025b9190610d1e565b610518565b60405161026d9190610c4c565b60405180910390f35b60606003805461028590610d8d565b80601f01602080910402602001604051908101604052809291908181526020018280546102b190610d8d565b80156102fe5780601f106102d3576101008083540402835291602001916102fe565b820191906000526020600020905b8154815290600101906020018083116102e157829003601f168201915b5050505050905090565b60008061031361059f565b90506103208185856105a7565b600191505092915050565b6000600254905090565b60008061034061059f565b905061034d858285610770565b6103588585856107fc565b60019150509392505050565b60006012905090565b60008061037861059f565b905061039981858561038a8589610518565b6103949190610ded565b6105a7565b600191505092915050565b60008060008373ffffffffffffffffffffffffffffffffffffffff1673ffffffffffffffffffffffffffffffffffffffff168152602001908152602001600020549050919050565b6060600480546103fb90610d8d565b80601f016020809104026020016040519081016040528092919081815260200182805461042790610d8d565b80156104745780601f1061044957610100808354040283529160200191610474565b820191906000526020600020905b81548152906001019060200180831161045757829003601f168201915b5050505050905090565b60008061048961059f565b905060006104978286610518565b9050838110156104dc576040517f08c379a00000000000000000000000000000000000000000000000000000000081526004016104d390610e93565b60405180910390fd5b6104e982868684036105a7565b60019250505092915050565b60008061050061059f565b905061050d8185856107fc565b600191505092915050565b6000600160008473ffffffffffffffffffffffffffffffffffffffff1673ffffffffffffffffffffffffffffffffffffffff16815260200190815260200160002060008373ffffffffffffffffffffffffffffffffffffffff1673ffffffffffffffffffffffffffffffffffffffff16815260200190815260200160002054905092915050565b600033905090565b600073ffffffffffffffffffffffffffffffffffffffff168373ffffffffffffffffffffffffffffffffffffffff1603610616576040517f08c379a000000000000000000000000000000000000000000000000000000000815260040161060d90610f25565b60405180910390fd5b600073ffffffffffffffffffffffffffffffffffffffff168273ffffffffffffffffffffffffffffffffffffffff1603610685576040517f08c379a000000000000000000000000000000000000000000000000000000000815260040161067c90610fb7565b60405180910390fd5b80600160008573ffffffffffffffffffffffffffffffffffffffff1673ffffffffffffffffffffffffffffffffffffffff16815260200190815260200160002060008473ffffffffffffffffffffffffffffffffffffffff1673ffffffffffffffffffffffffffffffffffffffff168152602001908152602001600020819055508173ffffffffffffffffffffffffffffffffffffffff168373ffffffffffffffffffffffffffffffffffffffff167f8c5be1e5ebec7d5bd14f71427d1e84f3dd0314c0f7b2291e5b200ac8c7c3b925836040516107639190610c4c565b60405180910390a3505050565b600061077c8484610518565b90507fffffffffffffffffffffffffffffffffffffffffffffffffffffffffffffffff81146107f657818110156107e8576040517f08c379a00000000000000000000000000000000000000000000000000000000081526004016107df90611023565b60405180910390fd5b6107f584848484036105a7565b5b50505050565b600073ffffffffffffffffffffffffffffffffffffffff168373ffffffffffffffffffffffffffffffffffffffff160361086b576040517f08c379a0000000000000000000000000000000000000000000000000000000008152600401610862906110b5565b60405180910390fd5b600073ffffffffffffffffffffffffffffffffffffffff168273ffffffffffffffffffffffffffffffffffffffff16036108da576040517f08c379a00000000000000000000000000000000000000000000000000000000081526004016108d190611147565b60405180910390fd5b6108e5838383610a72565b60008060008573ffffffffffffffffffffffffffffffffffffffff1673ffffffffffffffffffffffffffffffffffffffff1681526020019081526020016000205490508181101561096b576040517f08c379a0000000000000000000000000000000000000000000000000000000008152600401610962906111d9565b60405180910390fd5b8181036000808673ffffffffffffffffffffffffffffffffffffffff1673ffffffffffffffffffffffffffffffffffffffff16815260200190815260200160002081905550816000808573ffffffffffffffffffffffffffffffffffffffff1673ffffffffffffffffffffffffffffffffffffffff168152602001908152602001600020600082825401925050819055508273ffffffffffffffffffffffffffffffffffffffff168473ffffffffffffffffffffffffffffffffffffffff167fddf252ad1be2c89b69c2b068fc378daa952ba7f163c4a11628f55a4df523b3ef84604051610a599190610c4c565b60405180910390a3610a6c848484610a77565b50505050565b505050565b505050565b600081519050919050565b600082825260208201905092915050565b60005b83811015610ab6578082015181840152602081019050610a9b565b60008484015250505050565b6000601f19601f8301169050919050565b6000610ade82610a7c565b610ae88185610a87565b9350610af8818560208601610a98565b610b0181610ac2565b840191505092915050565b60006020820190508181036000830152610b268184610ad3565b905092915050565b600080fd5b600073ffffffffffffffffffffffffffffffffffffffff82169050919050565b6000610b5e82610b33565b9050919050565b610b6e81610b53565b8114610b7957600080fd5b50565b600081359050610b8b81610b65565b92915050565b6000819050919050565b610ba481610b91565b8114610baf57600080fd5b50565b600081359050610bc181610b9b565b92915050565b60008060408385031215610bde57610bdd610b2e565b5b6000610bec85828601610b7c565b9250506020610bfd85828601610bb2565b9150509250929050565b60008115159050919050565b610c1c81610c07565b82525050565b6000602082019050610c376000830184610c13565b92915050565b610c4681610b91565b82525050565b6000602082019050610c616000830184610c3d565b92915050565b600080600060608486031215610c8057610c7f610b2e565b5b6000610c8e86828701610b7c565b9350506020610c9f86828701610b7c565b9250506040610cb086828701610bb2565b9150509250925092565b600060ff82169050919050565b610cd081610cba565b82525050565b6000602082019050610ceb6000830184610cc7565b92915050565b600060208284031215610d0757610d06610b2e565b5b6000610d1584828501610b7c565b91505092915050565b60008060408385031215610d3557610d34610b2e565b5b6000610d4385828601610b7c565b9250506020610d5485828601610b7c565b9150509250929050565b7f4e487b7100000000000000000000000000000000000000000000000000000000600052602260045260246000fd5b60006002820490506001821680610da557607f821691505b602082108103610db857610db7610d5e565b5b50919050565b7f4e487b7100000000000000000000000000000000000000000000000000000000600052601160045260246000fd5b6000610df882610b91565b9150610e0383610b91565b9250828201905080821115610e1b57610e1a610dbe565b5b92915050565b7f45524332303a2064656372656173656420616c6c6f77616e63652062656c6f7760008201527f207a65726f000000000000000000000000000000000000000000000000000000602082015250565b6000610e7d602583610a87565b9150610e8882610e21565b604082019050919050565b60006020820190508181036000830152610eac81610e70565b9050919050565b7f45524332303a20617070726f76652066726f6d20746865207a65726f2061646460008201527f7265737300000000000000000000000000000000000000000000000000000000602082015250565b6000610f0f602483610a87565b9150610f1a82610eb3565b604082019050919050565b60006020820190508181036000830152610f3e81610f02565b9050919050565b7f45524332303a20617070726f766520746f20746865207a65726f20616464726560008201527f7373000000000000000000000000000000000000000000000000000000000000602082015250565b6000610fa1602283610a87565b9150610fac82610f45565b604082019050919050565b60006020820190508181036000830152610fd081610f94565b9050919050565b7f45524332303a20696e73756666696369656e7420616c6c6f77616e6365000000600082015250565b600061100d601d83610a87565b915061101882610fd7565b602082019050919050565b6000602082019050818103600083015261103c81611000565b9050919050565b7f45524332303a207472616e736665722066726f6d20746865207a65726f20616460008201527f6472657373000000000000000000000000000000000000000000000000000000602082015250565b600061109f602583610a87565b91506110aa82611043565b604082019050919050565b600060208201905081810360008301526110ce81611092565b9050919050565b7f45524332303a207472616e7366657220746f20746865207a65726f206164647260008201527f6573730000000000000000000000000000000000000000000000000000000000602082015250565b6000611131602383610a87565b915061113c826110d5565b604082019050919050565b6000602082019050818103600083015261116081611124565b9050919050565b7f45524332303a207472616e7366657220616d6f756e742065786365656473206260008201527f616c616e63650000000000000000000000000000000000000000000000000000602082015250565b60006111c3602683610a87565b91506111ce82611167565b604082019050919050565b600060208201905081810360008301526111f2816111b6565b905091905056fea2646970667358221220a7491ce341e6067f55e2af9c6e6e94c56fc88d5dc4fa465620604425396c5f9c64736f6c63430008120033",
  "linkReferences": {},
  "deployedLinkReferences": {}
}